{
  "_format": "hh-sol-artifact-1",
  "contractName": "WavePortal",
  "sourceName": "contracts/WavePortal.sol",
  "abi": [
    {
      "inputs": [],
      "stateMutability": "payable",
      "type": "constructor"
    },
    {
      "anonymous": false,
      "inputs": [
        {
          "indexed": true,
          "internalType": "address",
          "name": "from",
          "type": "address"
        },
        {
          "indexed": false,
          "internalType": "uint256",
          "name": "timestamp",
          "type": "uint256"
        },
        {
          "indexed": false,
          "internalType": "string",
          "name": "message",
          "type": "string"
        }
      ],
      "name": "NewChimken",
      "type": "event"
    },
    {
      "inputs": [],
      "name": "getAllChimken",
      "outputs": [
        {
          "components": [
            {
              "internalType": "address",
              "name": "sharer",
              "type": "address"
            },
            {
              "internalType": "string",
              "name": "message",
              "type": "string"
            },
            {
              "internalType": "uint256",
              "name": "timestamp",
              "type": "uint256"
            }
          ],
          "internalType": "struct WavePortal.Chimken[]",
          "name": "",
          "type": "tuple[]"
        }
      ],
      "stateMutability": "view",
      "type": "function"
    },
    {
      "inputs": [],
      "name": "getTotalChimken",
      "outputs": [
        {
          "internalType": "uint256",
          "name": "",
          "type": "uint256"
        }
      ],
      "stateMutability": "view",
      "type": "function"
    },
    {
      "inputs": [
        {
          "internalType": "address",
          "name": "",
          "type": "address"
        }
      ],
      "name": "lastSharedAt",
      "outputs": [
        {
          "internalType": "uint256",
          "name": "",
          "type": "uint256"
        }
      ],
      "stateMutability": "view",
      "type": "function"
    },
    {
      "inputs": [
        {
          "internalType": "string",
          "name": "_message",
          "type": "string"
        }
      ],
      "name": "shareChimken",
      "outputs": [],
      "stateMutability": "nonpayable",
      "type": "function"
    }
  ],
  "bytecode": "0x60806040526200004f6040518060400160405280601981526020017f4920414d20534d41525420434f4e54524143542e20504f472e000000000000008152506200007760201b620006081760201c565b606444426200005f9190620001c4565b6200006b919062000261565b60018190555062000308565b62000117816040516024016200008e919062000184565b6040516020818303038152906040527f41304fac000000000000000000000000000000000000000000000000000000007bffffffffffffffffffffffffffffffffffffffffffffffffffffffff19166020820180517bffffffffffffffffffffffffffffffffffffffffffffffffffffffff83818316178352505050506200011a60201b60201c565b50565b60008151905060006a636f6e736f6c652e6c6f679050602083016000808483855afa5050505050565b60006200015082620001a8565b6200015c8185620001b3565b93506200016e8185602086016200022b565b6200017981620002f7565b840191505092915050565b60006020820190508181036000830152620001a0818462000143565b905092915050565b600081519050919050565b600082825260208201905092915050565b6000620001d18262000221565b9150620001de8362000221565b9250827fffffffffffffffffffffffffffffffffffffffffffffffffffffffffffffffff0382111562000216576200021562000299565b5b828201905092915050565b6000819050919050565b60005b838110156200024b5780820151818401526020810190506200022e565b838111156200025b576000848401525b50505050565b60006200026e8262000221565b91506200027b8362000221565b9250826200028e576200028d620002c8565b5b828206905092915050565b7f4e487b7100000000000000000000000000000000000000000000000000000000600052601160045260246000fd5b7f4e487b7100000000000000000000000000000000000000000000000000000000600052601260045260246000fd5b6000601f19601f8301169050919050565b6110d880620003186000396000f3fe608060405234801561001057600080fd5b506004361061004c5760003560e01c8063117edd421461005157806328c093ca1461008157806340b3752f1461009d5780639174b121146100bb575b600080fd5b61006b60048036038101906100669190610925565b6100d9565b6040516100789190610d6a565b60405180910390f35b61009b6004803603810190610096919061094e565b6100f1565b005b6100a561046c565b6040516100b29190610c51565b60405180910390f35b6100c36105bd565b6040516100d09190610d6a565b60405180910390f35b60036020528060005260406000206000915090505481565b42600f600360003373ffffffffffffffffffffffffffffffffffffffff1673ffffffffffffffffffffffffffffffffffffffff1681526020019081526020016000205461013e9190610e87565b1061017e576040517f08c379a000000000000000000000000000000000000000000000000000000000815260040161017590610d2a565b60405180910390fd5b42600360003373ffffffffffffffffffffffffffffffffffffffff1673ffffffffffffffffffffffffffffffffffffffff1681526020019081526020016000208190555060016000808282546101d49190610e87565b9250508190555061021b6040518060400160405280601f81526020017f257320736861726564206368696d6b656e20772f206d6573736167652025730081525033836106a1565b600260405180606001604052803373ffffffffffffffffffffffffffffffffffffffff16815260200183815260200142815250908060018154018082558091505060019003906000526020600020906003020160009091909190915060008201518160000160006101000a81548173ffffffffffffffffffffffffffffffffffffffff021916908373ffffffffffffffffffffffffffffffffffffffff16021790555060208201518160010190805190602001906102da929190610805565b50604082015181600201555050606460015442446102f89190610e87565b6103029190610e87565b61030c9190610f8d565b600181905550600a60015411610419576000655af3107a400090504781111561036a576040517f08c379a000000000000000000000000000000000000000000000000000000000815260040161036190610d0a565b60405180910390fd5b60003373ffffffffffffffffffffffffffffffffffffffff168260405161039090610c3c565b60006040518083038185875af1925050503d80600081146103cd576040519150601f19603f3d011682016040523d82523d6000602084013e6103d2565b606091505b5050905080610416576040517f08c379a000000000000000000000000000000000000000000000000000000000815260040161040d90610d4a565b60405180910390fd5b50505b3373ffffffffffffffffffffffffffffffffffffffff167f78b75296e93ef7d79e594c3e94be65a1b6b3d3ef981ad1432226c1a4001ad49a4283604051610461929190610d85565b60405180910390a250565b60606002805480602002602001604051908101604052809291908181526020016000905b828210156105b457838290600052602060002090600302016040518060600160405290816000820160009054906101000a900473ffffffffffffffffffffffffffffffffffffffff1673ffffffffffffffffffffffffffffffffffffffff1673ffffffffffffffffffffffffffffffffffffffff16815260200160018201805461051990610f5b565b80601f016020809104026020016040519081016040528092919081815260200182805461054590610f5b565b80156105925780601f1061056757610100808354040283529160200191610592565b820191906000526020600020905b81548152906001019060200180831161057557829003601f168201915b5050505050815260200160028201548152505081526020019060010190610490565b50505050905090565b60006106006040518060400160405280601981526020017f5765206861766520256420746f74616c206368696d6b656e2100000000000000815250600054610740565b600054905090565b61069e8160405160240161061c9190610c73565b6040516020818303038152906040527f41304fac000000000000000000000000000000000000000000000000000000007bffffffffffffffffffffffffffffffffffffffffffffffffffffffff19166020820180517bffffffffffffffffffffffffffffffffffffffffffffffffffffffff83818316178352505050506107dc565b50565b61073b8383836040516024016106b993929190610c95565b6040516020818303038152906040527fe0e9ad4f000000000000000000000000000000000000000000000000000000007bffffffffffffffffffffffffffffffffffffffffffffffffffffffff19166020820180517bffffffffffffffffffffffffffffffffffffffffffffffffffffffff83818316178352505050506107dc565b505050565b6107d88282604051602401610756929190610cda565b6040516020818303038152906040527f9710a9d0000000000000000000000000000000000000000000000000000000007bffffffffffffffffffffffffffffffffffffffffffffffffffffffff19166020820180517bffffffffffffffffffffffffffffffffffffffffffffffffffffffff83818316178352505050506107dc565b5050565b60008151905060006a636f6e736f6c652e6c6f679050602083016000808483855afa5050505050565b82805461081190610f5b565b90600052602060002090601f016020900481019282610833576000855561087a565b82601f1061084c57805160ff191683800117855561087a565b8280016001018555821561087a579182015b8281111561087957825182559160200191906001019061085e565b5b509050610887919061088b565b5090565b5b808211156108a457600081600090555060010161088c565b5090565b60006108bb6108b684610de6565b610db5565b9050828152602081018484840111156108d357600080fd5b6108de848285610f19565b509392505050565b6000813590506108f58161108b565b92915050565b600082601f83011261090c57600080fd5b813561091c8482602086016108a8565b91505092915050565b60006020828403121561093757600080fd5b6000610945848285016108e6565b91505092915050565b60006020828403121561096057600080fd5b600082013567ffffffffffffffff81111561097a57600080fd5b610986848285016108fb565b91505092915050565b600061099b8383610bce565b905092915050565b6109ac81610edd565b82525050565b6109bb81610edd565b82525050565b60006109cc82610e26565b6109d68185610e49565b9350836020820285016109e885610e16565b8060005b85811015610a245784840389528151610a05858261098f565b9450610a1083610e3c565b925060208a019950506001810190506109ec565b50829750879550505050505092915050565b6000610a4182610e31565b610a4b8185610e65565b9350610a5b818560208601610f28565b610a648161107a565b840191505092915050565b6000610a7a82610e31565b610a848185610e76565b9350610a94818560208601610f28565b610a9d8161107a565b840191505092915050565b6000610ab5603483610e76565b91507f547279696e6720746f207769746864726177206d6f7265206d6f6e657920746860008301527f616e2074686520636f6e7472616374206861732e0000000000000000000000006020830152604082019050919050565b6000610b1b600a83610e76565b91507f576169742031356d696e000000000000000000000000000000000000000000006000830152602082019050919050565b6000610b5b602683610e76565b91507f4661696c656420746f207769746864726177206d6f6e65792066726f6d20636f60008301527f6e747261637400000000000000000000000000000000000000000000000000006020830152604082019050919050565b6000610bc1600083610e5a565b9150600082019050919050565b6000606083016000830151610be660008601826109a3565b5060208301518482036020860152610bfe8282610a36565b9150506040830151610c136040860182610c1e565b508091505092915050565b610c2781610f0f565b82525050565b610c3681610f0f565b82525050565b6000610c4782610bb4565b9150819050919050565b60006020820190508181036000830152610c6b81846109c1565b905092915050565b60006020820190508181036000830152610c8d8184610a6f565b905092915050565b60006060820190508181036000830152610caf8186610a6f565b9050610cbe60208301856109b2565b8181036040830152610cd08184610a6f565b9050949350505050565b60006040820190508181036000830152610cf48185610a6f565b9050610d036020830184610c2d565b9392505050565b60006020820190508181036000830152610d2381610aa8565b9050919050565b60006020820190508181036000830152610d4381610b0e565b9050919050565b60006020820190508181036000830152610d6381610b4e565b9050919050565b6000602082019050610d7f6000830184610c2d565b92915050565b6000604082019050610d9a6000830185610c2d565b8181036020830152610dac8184610a6f565b90509392505050565b6000604051905081810181811067ffffffffffffffff82111715610ddc57610ddb61104b565b5b8060405250919050565b600067ffffffffffffffff821115610e0157610e0061104b565b5b601f19601f8301169050602081019050919050565b6000819050602082019050919050565b600081519050919050565b600081519050919050565b6000602082019050919050565b600082825260208201905092915050565b600081905092915050565b600082825260208201905092915050565b600082825260208201905092915050565b6000610e9282610f0f565b9150610e9d83610f0f565b9250827fffffffffffffffffffffffffffffffffffffffffffffffffffffffffffffffff03821115610ed257610ed1610fbe565b5b828201905092915050565b6000610ee882610eef565b9050919050565b600073ffffffffffffffffffffffffffffffffffffffff82169050919050565b6000819050919050565b82818337600083830152505050565b60005b83811015610f46578082015181840152602081019050610f2b565b83811115610f55576000848401525b50505050565b60006002820490506001821680610f7357607f821691505b60208210811415610f8757610f8661101c565b5b50919050565b6000610f9882610f0f565b9150610fa383610f0f565b925082610fb357610fb2610fed565b5b828206905092915050565b7f4e487b7100000000000000000000000000000000000000000000000000000000600052601160045260246000fd5b7f4e487b7100000000000000000000000000000000000000000000000000000000600052601260045260246000fd5b7f4e487b7100000000000000000000000000000000000000000000000000000000600052602260045260246000fd5b7f4e487b7100000000000000000000000000000000000000000000000000000000600052604160045260246000fd5b6000601f19601f8301169050919050565b61109481610edd565b811461109f57600080fd5b5056fea264697066735822122007a41717433acce33e09a1dae4ac766177108d67d3e69fa3a56ffd2e3ba24ab764736f6c63430008000033",
  "linkReferences": {},
  "deployedLinkReferences": {}
}